{
  "_format": "hh-sol-artifact-1",
  "contractName": "DeepfakeDetector",
  "sourceName": "contracts/DeepfakeDetector.sol",
  "abi": [
    {
      "inputs": [],
      "stateMutability": "nonpayable",
      "type": "constructor"
    },
    {
      "anonymous": false,
      "inputs": [
        {
          "indexed": false,
          "internalType": "address",
          "name": "agent",
          "type": "address"
        },
        {
          "indexed": false,
          "internalType": "string",
          "name": "agentId",
          "type": "string"
        }
      ],
      "name": "AgentAuthorized",
      "type": "event"
    },
    {
      "anonymous": false,
      "inputs": [
        {
          "indexed": true,
          "internalType": "string",
          "name": "fileHash",
          "type": "string"
        },
        {
          "indexed": false,
          "internalType": "string",
          "name": "filename",
          "type": "string"
        },
        {
          "indexed": false,
          "internalType": "address",
          "name": "requester",
          "type": "address"
        }
      ],
      "name": "DetectionRequested",
      "type": "event"
    },
    {
      "anonymous": false,
      "inputs": [
        {
          "indexed": true,
          "internalType": "string",
          "name": "fileHash",
          "type": "string"
        },
        {
          "indexed": false,
          "internalType": "bool",
          "name": "isDeepfake",
          "type": "bool"
        },
        {
          "indexed": false,
          "internalType": "uint8",
          "name": "confidence",
          "type": "uint8"
        },
        {
          "indexed": false,
          "internalType": "address",
          "name": "agent",
          "type": "address"
        },
        {
          "indexed": false,
          "internalType": "string",
          "name": "agentId",
          "type": "string"
        }
      ],
      "name": "DetectionStored",
      "type": "event"
    },
    {
      "inputs": [
        {
          "internalType": "address",
          "name": "",
          "type": "address"
        }
      ],
      "name": "agentScans",
      "outputs": [
        {
          "internalType": "uint256",
          "name": "",
          "type": "uint256"
        }
      ],
      "stateMutability": "view",
      "type": "function"
    },
    {
      "inputs": [
        {
          "internalType": "address",
          "name": "agent",
          "type": "address"
        },
        {
          "internalType": "string",
          "name": "agentId",
          "type": "string"
        }
      ],
      "name": "authorizeAgent",
      "outputs": [],
      "stateMutability": "nonpayable",
      "type": "function"
    },
    {
      "inputs": [
        {
          "internalType": "address",
          "name": "",
          "type": "address"
        }
      ],
      "name": "authorizedAgents",
      "outputs": [
        {
          "internalType": "bool",
          "name": "",
          "type": "bool"
        }
      ],
      "stateMutability": "view",
      "type": "function"
    },
    {
      "inputs": [
        {
          "internalType": "address",
          "name": "agent",
          "type": "address"
        }
      ],
      "name": "getAgentScans",
      "outputs": [
        {
          "internalType": "uint256",
          "name": "",
          "type": "uint256"
        }
      ],
      "stateMutability": "view",
      "type": "function"
    },
    {
      "inputs": [
        {
          "internalType": "string",
          "name": "fileHash",
          "type": "string"
        }
      ],
      "name": "getResult",
      "outputs": [
        {
          "components": [
            {
              "internalType": "string",
              "name": "fileHash",
              "type": "string"
            },
            {
              "internalType": "string",
              "name": "filename",
              "type": "string"
            },
            {
              "internalType": "bool",
              "name": "isDeepfake",
              "type": "bool"
            },
            {
              "internalType": "uint8",
              "name": "confidence",
              "type": "uint8"
            },
            {
              "internalType": "uint256",
              "name": "timestamp",
              "type": "uint256"
            },
            {
              "internalType": "address",
              "name": "agent",
              "type": "address"
            },
            {
              "internalType": "string",
              "name": "agentId",
              "type": "string"
            }
          ],
          "internalType": "struct DeepfakeDetector.DetectionResult",
          "name": "",
          "type": "tuple"
        }
      ],
      "stateMutability": "view",
      "type": "function"
    },
    {
      "inputs": [],
      "name": "getTotalScans",
      "outputs": [
        {
          "internalType": "uint256",
          "name": "",
          "type": "uint256"
        }
      ],
      "stateMutability": "view",
      "type": "function"
    },
    {
      "inputs": [
        {
          "internalType": "address",
          "name": "agent",
          "type": "address"
        }
      ],
      "name": "isAgentAuthorized",
      "outputs": [
        {
          "internalType": "bool",
          "name": "",
          "type": "bool"
        }
      ],
      "stateMutability": "view",
      "type": "function"
    },
    {
      "inputs": [],
      "name": "owner",
      "outputs": [
        {
          "internalType": "address",
          "name": "",
          "type": "address"
        }
      ],
      "stateMutability": "view",
      "type": "function"
    },
    {
      "inputs": [
        {
          "internalType": "address",
          "name": "agent",
          "type": "address"
        }
      ],
      "name": "removeAgent",
      "outputs": [],
      "stateMutability": "nonpayable",
      "type": "function"
    },
    {
      "inputs": [
        {
          "internalType": "string",
          "name": "fileHash",
          "type": "string"
        },
        {
          "internalType": "string",
          "name": "filename",
          "type": "string"
        }
      ],
      "name": "requestDetection",
      "outputs": [],
      "stateMutability": "nonpayable",
      "type": "function"
    },
    {
      "inputs": [
        {
          "internalType": "string",
          "name": "",
          "type": "string"
        }
      ],
      "name": "results",
      "outputs": [
        {
          "internalType": "string",
          "name": "fileHash",
          "type": "string"
        },
        {
          "internalType": "string",
          "name": "filename",
          "type": "string"
        },
        {
          "internalType": "bool",
          "name": "isDeepfake",
          "type": "bool"
        },
        {
          "internalType": "uint8",
          "name": "confidence",
          "type": "uint8"
        },
        {
          "internalType": "uint256",
          "name": "timestamp",
          "type": "uint256"
        },
        {
          "internalType": "address",
          "name": "agent",
          "type": "address"
        },
        {
          "internalType": "string",
          "name": "agentId",
          "type": "string"
        }
      ],
      "stateMutability": "view",
      "type": "function"
    },
    {
      "inputs": [
        {
          "internalType": "string",
          "name": "fileHash",
          "type": "string"
        },
        {
          "internalType": "string",
          "name": "filename",
          "type": "string"
        },
        {
          "internalType": "bool",
          "name": "isDeepfake",
          "type": "bool"
        },
        {
          "internalType": "uint8",
          "name": "confidence",
          "type": "uint8"
        },
        {
          "internalType": "string",
          "name": "agentId",
          "type": "string"
        }
      ],
      "name": "storeResult",
      "outputs": [],
      "stateMutability": "nonpayable",
      "type": "function"
    },
    {
      "inputs": [],
      "name": "totalScans",
      "outputs": [
        {
          "internalType": "uint256",
          "name": "",
          "type": "uint256"
        }
      ],
      "stateMutability": "view",
      "type": "function"
    },
    {
      "inputs": [
        {
          "internalType": "address",
          "name": "newOwner",
          "type": "address"
        }
      ],
      "name": "transferOwnership",
      "outputs": [],
      "stateMutability": "nonpayable",
      "type": "function"
    }
  ],
  "bytecode": "0x608060405234801561001057600080fd5b50600480546001600160a01b031916331790556111db806100326000396000f3fe608060405234801561001057600080fd5b50600436106100ea5760003560e01c8063994907b01161008c578063cbad18ed11610066578063cbad18ed14610224578063dc8f885f14610244578063efd7606514610257578063f2fde38b1461027a57600080fd5b8063994907b0146101cd578063b326b99a146101d5578063c218b07c1461021157600080fd5b806372f9a91a116100c857806372f9a91a146101515780638d7c244e1461017a5780638da5cb5b1461018f57806397a6278e146101ba57600080fd5b80630c23792b146100ef578063498cc70d1461010b5780634b13d17d1461012b575b600080fd5b6100f860035481565b6040519081526020015b60405180910390f35b61011e610119366004610c16565b61028d565b6040516101029190610ca3565b61013e610139366004610c16565b6104ff565b6040516101029796959493929190610d44565b6100f861015f366004610dce565b6001600160a01b031660009081526002602052604090205490565b61018d610188366004610df0565b6106f0565b005b6004546101a2906001600160a01b031681565b6040516001600160a01b039091168152602001610102565b61018d6101c8366004610dce565b610743565b6003546100f8565b6102016101e3366004610dce565b6001600160a01b031660009081526001602052604090205460ff1690565b6040519015158152602001610102565b61018d61021f366004610e54565b610797565b6100f8610232366004610dce565b60026020526000908152604090205481565b61018d610252366004610e98565b610824565b610201610265366004610dce565b60016020526000908152604090205460ff1681565b61018d610288366004610dce565b610adf565b6102db6040518060e001604052806060815260200160608152602001600015158152602001600060ff1681526020016000815260200160006001600160a01b03168152602001606081525090565b6000826040516102eb9190610f55565b90815260200160405180910390206040518060e001604052908160008201805461031490610f71565b80601f016020809104026020016040519081016040528092919081815260200182805461034090610f71565b801561038d5780601f106103625761010080835404028352916020019161038d565b820191906000526020600020905b81548152906001019060200180831161037057829003601f168201915b505050505081526020016001820180546103a690610f71565b80601f01602080910402602001604051908101604052809291908181526020018280546103d290610f71565b801561041f5780601f106103f45761010080835404028352916020019161041f565b820191906000526020600020905b81548152906001019060200180831161040257829003601f168201915b5050509183525050600282015460ff808216151560208401526101009091041660408201526003820154606082015260048201546001600160a01b0316608082015260058201805460a09092019161047690610f71565b80601f01602080910402602001604051908101604052809291908181526020018280546104a290610f71565b80156104ef5780601f106104c4576101008083540402835291602001916104ef565b820191906000526020600020905b8154815290600101906020018083116104d257829003601f168201915b5050505050815250509050919050565b805160208183018101805160008252928201919093012091528054819061052590610f71565b80601f016020809104026020016040519081016040528092919081815260200182805461055190610f71565b801561059e5780601f106105735761010080835404028352916020019161059e565b820191906000526020600020905b81548152906001019060200180831161058157829003601f168201915b5050505050908060010180546105b390610f71565b80601f01602080910402602001604051908101604052809291908181526020018280546105df90610f71565b801561062c5780601f106106015761010080835404028352916020019161062c565b820191906000526020600020905b81548152906001019060200180831161060f57829003601f168201915b505050600284015460038501546004860154600587018054969760ff808616986101009096041696509294506001600160a01b039091169261066d90610f71565b80601f016020809104026020016040519081016040528092919081815260200182805461069990610f71565b80156106e65780601f106106bb576101008083540402835291602001916106e6565b820191906000526020600020905b8154815290600101906020018083116106c957829003601f168201915b5050505050905087565b816040516106fe9190610f55565b60405180910390207f7b18b629dd1d90b3b91c309230ac22fa01da4a18892f6736da399d179efc67668233604051610737929190610fab565b60405180910390a25050565b6004546001600160a01b031633146107765760405162461bcd60e51b815260040161076d90610fd5565b60405180910390fd5b6001600160a01b03166000908152600160205260409020805460ff19169055565b6004546001600160a01b031633146107c15760405162461bcd60e51b815260040161076d90610fd5565b6001600160a01b038216600090815260016020819052604091829020805460ff19169091179055517fd3bf918bec376816d150c113f35ece1b7e89439c3fbae63a1076141beb9993d190610818908490849061100c565b60405180910390a15050565b3360009081526001602052604090205460ff166108945760405162461bcd60e51b815260206004820152602860248201527f4f6e6c7920617574686f72697a6564206167656e74732063616e2073746f726560448201526720726573756c747360c01b606482015260840161076d565b60648260ff1611156108e85760405162461bcd60e51b815260206004820152601960248201527f436f6e666964656e6365206d757374206265203c3d2031303000000000000000604482015260640161076d565b6000856040516108f89190610f55565b908152604051908190036020019020805461091290610f71565b1590506109595760405162461bcd60e51b8152602060048201526015602482015274526573756c7420616c72656164792065786973747360581b604482015260640161076d565b6040805160e081018252868152602081018690528415158183015260ff841660608201524260808201523360a082015260c08101839052905181906000906109a2908990610f55565b908152604051908190036020019020815181906109bf908261107f565b50602082015160018201906109d4908261107f565b506040820151600282018054606085015160ff166101000261ff00199315159390931661ffff19909116179190911790556080820151600382015560a08201516004820180546001600160a01b039092166001600160a01b031990921691909117905560c08201516005820190610a4b908261107f565b50503360009081526002602052604081208054925090610a6a8361113f565b909155505060038054906000610a7f8361113f565b919050555085604051610a929190610f55565b60405180910390207f1a62f6b3b061e02aa00be219f532c98a184d823d566ba50d3e2993b644abb06985853386604051610acf9493929190611166565b60405180910390a2505050505050565b6004546001600160a01b03163314610b095760405162461bcd60e51b815260040161076d90610fd5565b6001600160a01b038116610b515760405162461bcd60e51b815260206004820152600f60248201526e496e76616c6964206164647265737360881b604482015260640161076d565b600480546001600160a01b0319166001600160a01b0392909216919091179055565b634e487b7160e01b600052604160045260246000fd5b600082601f830112610b9a57600080fd5b813567ffffffffffffffff80821115610bb557610bb5610b73565b604051601f8301601f19908116603f01168101908282118183101715610bdd57610bdd610b73565b81604052838152866020858801011115610bf657600080fd5b836020870160208301376000602085830101528094505050505092915050565b600060208284031215610c2857600080fd5b813567ffffffffffffffff811115610c3f57600080fd5b610c4b84828501610b89565b949350505050565b60005b83811015610c6e578181015183820152602001610c56565b50506000910152565b60008151808452610c8f816020860160208601610c53565b601f01601f19169290920160200192915050565b602081526000825160e06020840152610cc0610100840182610c77565b90506020840151601f1980858403016040860152610cde8383610c77565b925060408601511515606086015260ff6060870151166080860152608086015160a086015260a08601519150610d1f60c08601836001600160a01b03169052565b60c08601519150808584030160e086015250610d3b8282610c77565b95945050505050565b60e081526000610d5760e083018a610c77565b8281036020840152610d69818a610c77565b881515604085015260ff88166060850152608084018790526001600160a01b03861660a085015283810360c08501529050610da48185610c77565b9a9950505050505050505050565b80356001600160a01b0381168114610dc957600080fd5b919050565b600060208284031215610de057600080fd5b610de982610db2565b9392505050565b60008060408385031215610e0357600080fd5b823567ffffffffffffffff80821115610e1b57600080fd5b610e2786838701610b89565b93506020850135915080821115610e3d57600080fd5b50610e4a85828601610b89565b9150509250929050565b60008060408385031215610e6757600080fd5b610e7083610db2565b9150602083013567ffffffffffffffff811115610e8c57600080fd5b610e4a85828601610b89565b600080600080600060a08688031215610eb057600080fd5b853567ffffffffffffffff80821115610ec857600080fd5b610ed489838a01610b89565b96506020880135915080821115610eea57600080fd5b610ef689838a01610b89565b9550604088013591508115158214610f0d57600080fd5b90935060608701359060ff82168214610f2557600080fd5b90925060808701359080821115610f3b57600080fd5b50610f4888828901610b89565b9150509295509295909350565b60008251610f67818460208701610c53565b9190910192915050565b600181811c90821680610f8557607f821691505b602082108103610fa557634e487b7160e01b600052602260045260246000fd5b50919050565b604081526000610fbe6040830185610c77565b905060018060a01b03831660208301529392505050565b60208082526018908201527f4f6e6c79206f776e65722063616e2063616c6c20746869730000000000000000604082015260600190565b6001600160a01b0383168152604060208201819052600090610c4b90830184610c77565b601f82111561107a57600081815260208120601f850160051c810160208610156110575750805b601f850160051c820191505b8181101561107657828155600101611063565b5050505b505050565b815167ffffffffffffffff81111561109957611099610b73565b6110ad816110a78454610f71565b84611030565b602080601f8311600181146110e257600084156110ca5750858301515b600019600386901b1c1916600185901b178555611076565b600085815260208120601f198616915b82811015611111578886015182559484019460019091019084016110f2565b508582101561112f5787850151600019600388901b60f8161c191681555b5050505050600190811b01905550565b60006001820161115f57634e487b7160e01b600052601160045260246000fd5b5060010190565b841515815260ff841660208201526001600160a01b038316604082015260806060820181905260009061119b90830184610c77565b969550505050505056fea264697066735822122020f756da7f48a6ea31ad732f84a14d2246b7c3f16504ed83a4cfb7d2598bb01d64736f6c63430008130033",
  "linkReferences": {},
  "deployedLinkReferences": {}
}