{
  "_format": "hh-sol-artifact-1",
  "contractName": "DeepfakeDetector",
  "sourceName": "contracts/DeepfakeDetector.sol",
  "abi": [
    {
      "inputs": [],
      "stateMutability": "nonpayable",
      "type": "constructor"
    },
    {
      "inputs": [
        {
          "internalType": "address",
          "name": "owner",
          "type": "address"
        }
      ],
      "name": "OwnableInvalidOwner",
      "type": "error"
    },
    {
      "inputs": [
        {
          "internalType": "address",
          "name": "account",
          "type": "address"
        }
      ],
      "name": "OwnableUnauthorizedAccount",
      "type": "error"
    },
    {
      "inputs": [],
      "name": "ReentrancyGuardReentrantCall",
      "type": "error"
    },
    {
      "anonymous": false,
      "inputs": [
        {
          "indexed": true,
          "internalType": "string",
          "name": "fileHash",
          "type": "string"
        },
        {
          "indexed": true,
          "internalType": "address",
          "name": "detector",
          "type": "address"
        },
        {
          "indexed": false,
          "internalType": "bool",
          "name": "isDeepfake",
          "type": "bool"
        },
        {
          "indexed": false,
          "internalType": "uint8",
          "name": "confidence",
          "type": "uint8"
        },
        {
          "indexed": false,
          "internalType": "uint256",
          "name": "timestamp",
          "type": "uint256"
        }
      ],
      "name": "DetectionStored",
      "type": "event"
    },
    {
      "anonymous": false,
      "inputs": [
        {
          "indexed": true,
          "internalType": "address",
          "name": "detector",
          "type": "address"
        },
        {
          "indexed": false,
          "internalType": "bool",
          "name": "authorized",
          "type": "bool"
        }
      ],
      "name": "DetectorAuthorized",
      "type": "event"
    },
    {
      "anonymous": false,
      "inputs": [
        {
          "indexed": true,
          "internalType": "address",
          "name": "previousOwner",
          "type": "address"
        },
        {
          "indexed": true,
          "internalType": "address",
          "name": "newOwner",
          "type": "address"
        }
      ],
      "name": "OwnershipTransferred",
      "type": "event"
    },
    {
      "anonymous": false,
      "inputs": [
        {
          "indexed": true,
          "internalType": "string",
          "name": "fileHash",
          "type": "string"
        },
        {
          "indexed": false,
          "internalType": "bool",
          "name": "verified",
          "type": "bool"
        }
      ],
      "name": "ResultVerified",
      "type": "event"
    },
    {
      "inputs": [
        {
          "internalType": "uint256",
          "name": "",
          "type": "uint256"
        }
      ],
      "name": "allFileHashes",
      "outputs": [
        {
          "internalType": "string",
          "name": "",
          "type": "string"
        }
      ],
      "stateMutability": "view",
      "type": "function"
    },
    {
      "inputs": [
        {
          "internalType": "address",
          "name": "",
          "type": "address"
        }
      ],
      "name": "authorizedDetectors",
      "outputs": [
        {
          "internalType": "bool",
          "name": "",
          "type": "bool"
        }
      ],
      "stateMutability": "view",
      "type": "function"
    },
    {
      "inputs": [
        {
          "internalType": "string",
          "name": "",
          "type": "string"
        }
      ],
      "name": "detectionResults",
      "outputs": [
        {
          "internalType": "string",
          "name": "fileHash",
          "type": "string"
        },
        {
          "internalType": "bool",
          "name": "isDeepfake",
          "type": "bool"
        },
        {
          "internalType": "uint8",
          "name": "confidence",
          "type": "uint8"
        },
        {
          "internalType": "string",
          "name": "analysisReason",
          "type": "string"
        },
        {
          "internalType": "string",
          "name": "modelVersion",
          "type": "string"
        },
        {
          "internalType": "address",
          "name": "detector",
          "type": "address"
        },
        {
          "internalType": "uint256",
          "name": "timestamp",
          "type": "uint256"
        },
        {
          "internalType": "uint256",
          "name": "processingTime",
          "type": "uint256"
        },
        {
          "internalType": "bool",
          "name": "verified",
          "type": "bool"
        }
      ],
      "stateMutability": "view",
      "type": "function"
    },
    {
      "inputs": [],
      "name": "emergencyWithdraw",
      "outputs": [],
      "stateMutability": "nonpayable",
      "type": "function"
    },
    {
      "inputs": [],
      "name": "getContractStats",
      "outputs": [
        {
          "internalType": "uint256",
          "name": "total",
          "type": "uint256"
        },
        {
          "internalType": "uint256",
          "name": "deepfakeCount",
          "type": "uint256"
        },
        {
          "internalType": "uint256",
          "name": "authenticCount",
          "type": "uint256"
        }
      ],
      "stateMutability": "view",
      "type": "function"
    },
    {
      "inputs": [],
      "name": "getDeepfakePercentage",
      "outputs": [
        {
          "internalType": "uint256",
          "name": "",
          "type": "uint256"
        }
      ],
      "stateMutability": "view",
      "type": "function"
    },
    {
      "inputs": [
        {
          "internalType": "string",
          "name": "_fileHash",
          "type": "string"
        }
      ],
      "name": "getDetectionResult",
      "outputs": [
        {
          "components": [
            {
              "internalType": "string",
              "name": "fileHash",
              "type": "string"
            },
            {
              "internalType": "bool",
              "name": "isDeepfake",
              "type": "bool"
            },
            {
              "internalType": "uint8",
              "name": "confidence",
              "type": "uint8"
            },
            {
              "internalType": "string",
              "name": "analysisReason",
              "type": "string"
            },
            {
              "internalType": "string",
              "name": "modelVersion",
              "type": "string"
            },
            {
              "internalType": "address",
              "name": "detector",
              "type": "address"
            },
            {
              "internalType": "uint256",
              "name": "timestamp",
              "type": "uint256"
            },
            {
              "internalType": "uint256",
              "name": "processingTime",
              "type": "uint256"
            },
            {
              "internalType": "bool",
              "name": "verified",
              "type": "bool"
            }
          ],
          "internalType": "struct DeepfakeDetector.DetectionResult",
          "name": "",
          "type": "tuple"
        }
      ],
      "stateMutability": "view",
      "type": "function"
    },
    {
      "inputs": [
        {
          "internalType": "uint256",
          "name": "_limit",
          "type": "uint256"
        }
      ],
      "name": "getRecentDetections",
      "outputs": [
        {
          "internalType": "string[]",
          "name": "",
          "type": "string[]"
        }
      ],
      "stateMutability": "view",
      "type": "function"
    },
    {
      "inputs": [],
      "name": "getTotalDetections",
      "outputs": [
        {
          "internalType": "uint256",
          "name": "",
          "type": "uint256"
        }
      ],
      "stateMutability": "view",
      "type": "function"
    },
    {
      "inputs": [
        {
          "internalType": "address",
          "name": "_user",
          "type": "address"
        }
      ],
      "name": "getUserAnalytics",
      "outputs": [
        {
          "components": [
            {
              "internalType": "uint256",
              "name": "totalAnalyses",
              "type": "uint256"
            },
            {
              "internalType": "uint256",
              "name": "deepfakeDetected",
              "type": "uint256"
            },
            {
              "internalType": "uint256",
              "name": "authenticDetected",
              "type": "uint256"
            },
            {
              "internalType": "uint256",
              "name": "lastAnalysisTime",
              "type": "uint256"
            }
          ],
          "internalType": "struct DeepfakeDetector.UserAnalysis",
          "name": "",
          "type": "tuple"
        }
      ],
      "stateMutability": "view",
      "type": "function"
    },
    {
      "inputs": [
        {
          "internalType": "address",
          "name": "_user",
          "type": "address"
        }
      ],
      "name": "getUserDetectionHistory",
      "outputs": [
        {
          "internalType": "string[]",
          "name": "",
          "type": "string[]"
        }
      ],
      "stateMutability": "view",
      "type": "function"
    },
    {
      "inputs": [
        {
          "internalType": "string",
          "name": "_fileHash",
          "type": "string"
        }
      ],
      "name": "isFileProcessed",
      "outputs": [
        {
          "internalType": "bool",
          "name": "",
          "type": "bool"
        }
      ],
      "stateMutability": "view",
      "type": "function"
    },
    {
      "inputs": [],
      "name": "owner",
      "outputs": [
        {
          "internalType": "address",
          "name": "",
          "type": "address"
        }
      ],
      "stateMutability": "view",
      "type": "function"
    },
    {
      "inputs": [
        {
          "internalType": "string",
          "name": "",
          "type": "string"
        }
      ],
      "name": "processedHashes",
      "outputs": [
        {
          "internalType": "bool",
          "name": "",
          "type": "bool"
        }
      ],
      "stateMutability": "view",
      "type": "function"
    },
    {
      "inputs": [],
      "name": "renounceOwnership",
      "outputs": [],
      "stateMutability": "nonpayable",
      "type": "function"
    },
    {
      "inputs": [
        {
          "internalType": "address",
          "name": "_detector",
          "type": "address"
        },
        {
          "internalType": "bool",
          "name": "_authorized",
          "type": "bool"
        }
      ],
      "name": "setDetectorAuthorization",
      "outputs": [],
      "stateMutability": "nonpayable",
      "type": "function"
    },
    {
      "inputs": [
        {
          "internalType": "string",
          "name": "_fileHash",
          "type": "string"
        },
        {
          "internalType": "bool",
          "name": "_isDeepfake",
          "type": "bool"
        },
        {
          "internalType": "uint8",
          "name": "_confidence",
          "type": "uint8"
        },
        {
          "internalType": "string",
          "name": "_analysisReason",
          "type": "string"
        },
        {
          "internalType": "string",
          "name": "_modelVersion",
          "type": "string"
        },
        {
          "internalType": "uint256",
          "name": "_processingTime",
          "type": "uint256"
        }
      ],
      "name": "storeDetectionResult",
      "outputs": [],
      "stateMutability": "nonpayable",
      "type": "function"
    },
    {
      "inputs": [
        {
          "internalType": "address",
          "name": "newOwner",
          "type": "address"
        }
      ],
      "name": "transferOwnership",
      "outputs": [],
      "stateMutability": "nonpayable",
      "type": "function"
    },
    {
      "inputs": [
        {
          "internalType": "address",
          "name": "",
          "type": "address"
        }
      ],
      "name": "userAnalytics",
      "outputs": [
        {
          "internalType": "uint256",
          "name": "totalAnalyses",
          "type": "uint256"
        },
        {
          "internalType": "uint256",
          "name": "deepfakeDetected",
          "type": "uint256"
        },
        {
          "internalType": "uint256",
          "name": "authenticDetected",
          "type": "uint256"
        },
        {
          "internalType": "uint256",
          "name": "lastAnalysisTime",
          "type": "uint256"
        }
      ],
      "stateMutability": "view",
      "type": "function"
    },
    {
      "inputs": [
        {
          "internalType": "address",
          "name": "",
          "type": "address"
        },
        {
          "internalType": "uint256",
          "name": "",
          "type": "uint256"
        }
      ],
      "name": "userFileHashes",
      "outputs": [
        {
          "internalType": "string",
          "name": "",
          "type": "string"
        }
      ],
      "stateMutability": "view",
      "type": "function"
    },
    {
      "inputs": [
        {
          "internalType": "string",
          "name": "_fileHash",
          "type": "string"
        },
        {
          "internalType": "bool",
          "name": "_verified",
          "type": "bool"
        }
      ],
      "name": "verifyDetectionResult",
      "outputs": [],
      "stateMutability": "nonpayable",
      "type": "function"
    },
    {
      "stateMutability": "payable",
      "type": "receive"
    }
  ],
  "bytecode": "0x608060405234801561001057600080fd5b50338061003757604051631e4fbdf760e01b81526000600482015260240160405180910390fd5b61004081610065565b506001808055336000908152600760205260409020805460ff191690911790556100b5565b600080546001600160a01b038381166001600160a01b0319831681178455604051919092169283917f8be0079c531659141344cd1fd0a4f28419497f9722a3daafe3b4186f6b6457e09190a35050565b611cde806100c46000396000f3fe60806040526004361061012e5760003560e01c80638425a56e116100ab578063ac16025d1161006f578063ac16025d146103c0578063c44fe5cc146103e0578063c800adaf14610400578063db2e21bc14610462578063dfe6b5d614610477578063f2fde38b146104a757600080fd5b80638425a56e146102c05780638598bcc4146102f55780638da5cb5b1461034857806399deb09314610370578063a79c5c9d1461039057600080fd5b806359331c2a116100f257806359331c2a1461021c57806364f2313e146102315780636b0b58dc1461025e578063715018a61461028b57806379c3456e146102a057600080fd5b806304596aa21461013a578063105c4b5f1461015c57806318bdecf4146101845780631ccc6d9f146101a457806336d06ade146101ef57600080fd5b3661013557005b600080fd5b34801561014657600080fd5b5061015a6101553660046115a5565b6104c7565b005b34801561016857600080fd5b5061017161052f565b6040519081526020015b60405180910390f35b34801561019057600080fd5b5061015a61019f36600461167b565b6105d8565b3480156101b057600080fd5b506101df6101bf3660046116c0565b805160208183018101805160048252928201919093012091525460ff1681565b604051901515815260200161017b565b3480156101fb57600080fd5b5061020f61020a3660046116fd565b6106c2565b60405161017b9190611766565b34801561022857600080fd5b50600254610171565b34801561023d57600080fd5b5061025161024c3660046117c8565b610867565b60405161017b91906117f2565b34801561026a57600080fd5b5061027e6102793660046116c0565b610920565b60405161017b919061180c565b34801561029757600080fd5b5061015a610c0a565b3480156102ac57600080fd5b5061015a6102bb3660046118dd565b610c1e565b3480156102cc57600080fd5b506102e06102db3660046116c0565b611003565b60405161017b99989796959493929190611999565b34801561030157600080fd5b50610315610310366004611a1b565b611203565b60405161017b91908151815260208083015190820152604080830151908201526060918201519181019190915260800190565b34801561035457600080fd5b506000546040516001600160a01b03909116815260200161017b565b34801561037c57600080fd5b5061020f61038b366004611a1b565b61127c565b34801561039c57600080fd5b506101df6103ab366004611a1b565b60076020526000908152604090205460ff1681565b3480156103cc57600080fd5b506102516103db3660046116fd565b61136b565b3480156103ec57600080fd5b506101df6103fb3660046116c0565b611396565b34801561040c57600080fd5b5061044261041b366004611a1b565b60056020526000908152604090208054600182015460028301546003909301549192909184565b60408051948552602085019390935291830152606082015260800161017b565b34801561046e57600080fd5b5061015a6113c1565b34801561048357600080fd5b5061048c611406565b6040805193845260208401929092529082015260600161017b565b3480156104b357600080fd5b5061015a6104c2366004611a1b565b611497565b6104cf6114d2565b6001600160a01b038216600081815260076020908152604091829020805460ff191685151590811790915591519182527fbd980ec15e12d5655b8e7be6b6a6912049401b1e42aaff06b5d22caaaaa645cd91015b60405180910390a25050565b60025460009080820361054457600091505090565b6000805b6008548110156105b95760036008828154811061056757610567611a36565b9060005260206000200160405161057e9190611a86565b9081526040519081900360200190206001015460ff16156105a757816105a381611b12565b9250505b806105b181611b12565b915050610548565b50816105c782612710611b2b565b6105d19190611b48565b9250505090565b6105e06114d2565b6004826040516105f09190611b6a565b9081526040519081900360200190205460ff166106495760405162461bcd60e51b8152602060048201526012602482015271119a5b19481b9bdd081c1c9bd8d95cdcd95960721b60448201526064015b60405180910390fd5b8060038360405161065a9190611b6a565b908152604051908190036020018120600701805492151560ff1990931692909217909155610689908390611b6a565b6040519081900381208215158252907fc899175428e6bb62bcf6a2f1dc777fe8cd99a836cf85d6af794ea820757982ca90602001610523565b60085460609060008190036107045760408051600080825260208201909252906106fc565b60608152602001906001900390816106e75790505b509392505050565b60008184116107135783610715565b815b905060008167ffffffffffffffff811115610732576107326115d8565b60405190808252806020026020018201604052801561076557816020015b60608152602001906001900390816107505790505b50905060005b8281101561085e57600881610781600187611b86565b61078b9190611b86565b8154811061079b5761079b611a36565b9060005260206000200180546107b090611a4c565b80601f01602080910402602001604051908101604052809291908181526020018280546107dc90611a4c565b80156108295780601f106107fe57610100808354040283529160200191610829565b820191906000526020600020905b81548152906001019060200180831161080c57829003601f168201915b505050505082828151811061084057610840611a36565b6020026020010181905250808061085690611b12565b91505061076b565b50949350505050565b6006602052816000526040600020818154811061088357600080fd5b9060005260206000200160009150915050805461089f90611a4c565b80601f01602080910402602001604051908101604052809291908181526020018280546108cb90611a4c565b80156109185780601f106108ed57610100808354040283529160200191610918565b820191906000526020600020905b8154815290600101906020018083116108fb57829003601f168201915b505050505081565b60408051610120810182526060808252600060208301819052928201839052808201819052608082015260a0810182905260c0810182905260e081018290526101008101919091526004826040516109789190611b6a565b9081526040519081900360200190205460ff166109cc5760405162461bcd60e51b8152602060048201526012602482015271119a5b19481b9bdd081c1c9bd8d95cdcd95960721b6044820152606401610640565b6003826040516109dc9190611b6a565b908152602001604051809103902060405180610120016040529081600082018054610a0690611a4c565b80601f0160208091040260200160405190810160405280929190818152602001828054610a3290611a4c565b8015610a7f5780601f10610a5457610100808354040283529160200191610a7f565b820191906000526020600020905b815481529060010190602001808311610a6257829003601f168201915b5050509183525050600182015460ff80821615156020840152610100909104166040820152600282018054606090920191610ab990611a4c565b80601f0160208091040260200160405190810160405280929190818152602001828054610ae590611a4c565b8015610b325780601f10610b0757610100808354040283529160200191610b32565b820191906000526020600020905b815481529060010190602001808311610b1557829003601f168201915b50505050508152602001600382018054610b4b90611a4c565b80601f0160208091040260200160405190810160405280929190818152602001828054610b7790611a4c565b8015610bc45780601f10610b9957610100808354040283529160200191610bc4565b820191906000526020600020905b815481529060010190602001808311610ba757829003601f168201915b505050918352505060048201546001600160a01b03166020820152600582015460408201526006820154606082015260079091015460ff16151560809091015292915050565b610c126114d2565b610c1c60006114ff565b565b3360009081526007602052604090205460ff1680610c4657506000546001600160a01b031633145b610c925760405162461bcd60e51b815260206004820152601760248201527f4e6f7420617574686f72697a6564206465746563746f720000000000000000006044820152606401610640565b8360648160ff161115610ce75760405162461bcd60e51b815260206004820152601860248201527f436f6e666964656e6365206d75737420626520302d31303000000000000000006044820152606401610640565b86600481604051610cf89190611b6a565b9081526040519081900360200190205460ff1615610d515760405162461bcd60e51b8152602060048201526016602482015275119a5b1948185b1c9958591e481c1c9bd8d95cdcd95960521b6044820152606401610640565b610d5961154f565b6040805161012081018252898152881515602082015260ff88168183015260608101879052608081018690523360a08201524260c082015260e08101859052600061010082015290518190600390610db2908c90611b6a565b90815260405190819003602001902081518190610dcf9082611be8565b506020820151600182018054604085015160ff166101000261ff00199315159390931661ffff199091161791909117905560608201516002820190610e149082611be8565b5060808201516003820190610e299082611be8565b5060a0820151600482810180546001600160a01b0319166001600160a01b039093169290921790915560c0830151600583015560e08301516006830155610100909201516007909101805460ff191691151591909117905560405160019190610e93908c90611b6a565b908152604051908190036020019020805491151560ff19909216919091179055600880546001810182556000919091527ff3f7a9fe364faab93b216da50a3214154f22a0a2b415b23a84c8169e8b636ee301610eef8a82611be8565b5033600090815260066020908152604082208054600181018255908352912001610f198a82611be8565b5060028054906000610f2a83611b12565b9091555050336000908152600560205260408120805490918290610f4d83611b12565b90915550504260038201558815610f7a57600181018054906000610f7083611b12565b9190505550610f92565b600281018054906000610f8c83611b12565b91905055505b6040513390610fa2908c90611b6a565b604080519182900382208c1515835260ff8c1660208401524283830152905190917f3b5133260d7fa60cd814d75c549c8d1aff1c1daccf284f5b34ff9af4e66c17b7919081900360600190a35050610ff960018055565b5050505050505050565b805160208183018101805160038252928201919093012091528054819061102990611a4c565b80601f016020809104026020016040519081016040528092919081815260200182805461105590611a4c565b80156110a25780601f10611077576101008083540402835291602001916110a2565b820191906000526020600020905b81548152906001019060200180831161108557829003601f168201915b505050506001830154600284018054939460ff80841695610100909404169350916110cc90611a4c565b80601f01602080910402602001604051908101604052809291908181526020018280546110f890611a4c565b80156111455780601f1061111a57610100808354040283529160200191611145565b820191906000526020600020905b81548152906001019060200180831161112857829003601f168201915b50505050509080600301805461115a90611a4c565b80601f016020809104026020016040519081016040528092919081815260200182805461118690611a4c565b80156111d35780601f106111a8576101008083540402835291602001916111d3565b820191906000526020600020905b8154815290600101906020018083116111b657829003601f168201915b5050505060048301546005840154600685015460079095015493946001600160a01b039092169390925060ff1689565b61122e6040518060800160405280600081526020016000815260200160008152602001600081525090565b506001600160a01b0316600090815260056020908152604091829020825160808101845281548152600182015492810192909252600281015492820192909252600390910154606082015290565b6001600160a01b0381166000908152600660209081526040808320805482518185028101850190935280835260609492939192909184015b828210156113605783829060005260206000200180546112d390611a4c565b80601f01602080910402602001604051908101604052809291908181526020018280546112ff90611a4c565b801561134c5780601f106113215761010080835404028352916020019161134c565b820191906000526020600020905b81548152906001019060200180831161132f57829003601f168201915b5050505050815260200190600101906112b4565b505050509050919050565b6008818154811061137b57600080fd5b90600052602060002001600091509050805461089f90611a4c565b60006004826040516113a89190611b6a565b9081526040519081900360200190205460ff1692915050565b6113c96114d2565b600080546040516001600160a01b03909116914780156108fc02929091818181858888f19350505050158015611403573d6000803e3d6000fd5b50565b600254600080805b6008548110156114915760036008828154811061142d5761142d611a36565b906000526020600020016040516114449190611a86565b9081526040519081900360200190206001015460ff1615611471578261146981611b12565b93505061147f565b8161147b81611b12565b9250505b8061148981611b12565b91505061140e565b50909192565b61149f6114d2565b6001600160a01b0381166114c957604051631e4fbdf760e01b815260006004820152602401610640565b611403816114ff565b6000546001600160a01b03163314610c1c5760405163118cdaa760e01b8152336004820152602401610640565b600080546001600160a01b038381166001600160a01b0319831681178455604051919092169283917f8be0079c531659141344cd1fd0a4f28419497f9722a3daafe3b4186f6b6457e09190a35050565b60026001540361157257604051633ee5aeb560e01b815260040160405180910390fd5b6002600155565b80356001600160a01b038116811461159057600080fd5b919050565b8035801515811461159057600080fd5b600080604083850312156115b857600080fd5b6115c183611579565b91506115cf60208401611595565b90509250929050565b634e487b7160e01b600052604160045260246000fd5b600082601f8301126115ff57600080fd5b813567ffffffffffffffff8082111561161a5761161a6115d8565b604051601f8301601f19908116603f01168101908282118183101715611642576116426115d8565b8160405283815286602085880101111561165b57600080fd5b836020870160208301376000602085830101528094505050505092915050565b6000806040838503121561168e57600080fd5b823567ffffffffffffffff8111156116a557600080fd5b6116b1858286016115ee565b9250506115cf60208401611595565b6000602082840312156116d257600080fd5b813567ffffffffffffffff8111156116e957600080fd5b6116f5848285016115ee565b949350505050565b60006020828403121561170f57600080fd5b5035919050565b60005b83811015611731578181015183820152602001611719565b50506000910152565b60008151808452611752816020860160208601611716565b601f01601f19169290920160200192915050565b6000602080830181845280855180835260408601915060408160051b870101925083870160005b828110156117bb57603f198886030184526117a985835161173a565b9450928501929085019060010161178d565b5092979650505050505050565b600080604083850312156117db57600080fd5b6117e483611579565b946020939093013593505050565b602081526000611805602083018461173a565b9392505050565b602081526000825161012080602085015261182b61014085018361173a565b91506020850151611840604086018215159052565b50604085015160ff81166060860152506060850151601f198086850301608087015261186c848361173a565b935060808701519150808685030160a08701525061188a838261173a565b92505060a08501516118a760c08601826001600160a01b03169052565b5060c085015160e085015260e08501516101008181870152808701519150506118d38286018215159052565b5090949350505050565b60008060008060008060c087890312156118f657600080fd5b863567ffffffffffffffff8082111561190e57600080fd5b61191a8a838b016115ee565b975061192860208a01611595565b96506040890135915060ff8216821461194057600080fd5b9094506060880135908082111561195657600080fd5b6119628a838b016115ee565b9450608089013591508082111561197857600080fd5b5061198589828a016115ee565b92505060a087013590509295509295509295565b60006101208083526119ad8184018d61173a565b90508a1515602084015260ff8a16604084015282810360608401526119d2818a61173a565b905082810360808401526119e6818961173a565b6001600160a01b039790971660a0840152505060c081019390935260e083019190915215156101009091015295945050505050565b600060208284031215611a2d57600080fd5b61180582611579565b634e487b7160e01b600052603260045260246000fd5b600181811c90821680611a6057607f821691505b602082108103611a8057634e487b7160e01b600052602260045260246000fd5b50919050565b6000808354611a9481611a4c565b60018281168015611aac5760018114611ac157611af0565b60ff1984168752821515830287019450611af0565b8760005260208060002060005b85811015611ae75781548a820152908401908201611ace565b50505082870194505b50929695505050505050565b634e487b7160e01b600052601160045260246000fd5b600060018201611b2457611b24611afc565b5060010190565b8082028115828204841417611b4257611b42611afc565b92915050565b600082611b6557634e487b7160e01b600052601260045260246000fd5b500490565b60008251611b7c818460208701611716565b9190910192915050565b81810381811115611b4257611b42611afc565b601f821115611be357600081815260208120601f850160051c81016020861015611bc05750805b601f850160051c820191505b81811015611bdf57828155600101611bcc565b5050505b505050565b815167ffffffffffffffff811115611c0257611c026115d8565b611c1681611c108454611a4c565b84611b99565b602080601f831160018114611c4b5760008415611c335750858301515b600019600386901b1c1916600185901b178555611bdf565b600085815260208120601f198616915b82811015611c7a57888601518255948401946001909101908401611c5b565b5085821015611c985787850151600019600388901b60f8161c191681555b5050505050600190811b0190555056fea2646970667358221220ac1ca4a826433d21fa65d658db7c11a8191f282ef42e112fbc30e6ca8080cecd64736f6c63430008140033",
  "linkReferences": {},
  "deployedLinkReferences": {}
}